{
  "_format": "hh-sol-artifact-1",
  "contractName": "WeMeet",
  "sourceName": "contracts/WeMeet.sol",
  "abi": [
    {
      "inputs": [],
      "stateMutability": "nonpayable",
      "type": "constructor"
    },
    {
      "anonymous": false,
      "inputs": [
        {
          "indexed": false,
          "internalType": "uint256",
          "name": "id",
          "type": "uint256"
        },
        {
          "indexed": false,
          "internalType": "address",
          "name": "student",
          "type": "address"
        },
        {
          "indexed": false,
          "internalType": "address",
          "name": "lecturer",
          "type": "address"
        }
      ],
      "name": "AppointmentAttended",
      "type": "event"
    },
    {
      "anonymous": false,
      "inputs": [
        {
          "indexed": false,
          "internalType": "uint256",
          "name": "id",
          "type": "uint256"
        },
        {
          "indexed": false,
          "internalType": "address",
          "name": "student",
          "type": "address"
        },
        {
          "indexed": false,
          "internalType": "string",
          "name": "name",
          "type": "string"
        },
        {
          "indexed": false,
          "internalType": "address",
          "name": "lecturer",
          "type": "address"
        },
        {
          "indexed": false,
          "internalType": "uint256",
          "name": "date",
          "type": "uint256"
        }
      ],
      "name": "AppointmentCreated",
      "type": "event"
    },
    {
      "anonymous": false,
      "inputs": [
        {
          "indexed": false,
          "internalType": "address",
          "name": "student",
          "type": "address"
        },
        {
          "indexed": false,
          "internalType": "uint256",
          "name": "points",
          "type": "uint256"
        }
      ],
      "name": "RewardGiven",
      "type": "event"
    },
    {
      "inputs": [],
      "name": "appointmentCounter",
      "outputs": [
        {
          "internalType": "uint256",
          "name": "",
          "type": "uint256"
        }
      ],
      "stateMutability": "view",
      "type": "function"
    },
    {
      "inputs": [
        {
          "internalType": "uint256",
          "name": "",
          "type": "uint256"
        }
      ],
      "name": "appointments",
      "outputs": [
        {
          "internalType": "uint256",
          "name": "id",
          "type": "uint256"
        },
        {
          "internalType": "address",
          "name": "student",
          "type": "address"
        },
        {
          "internalType": "string",
          "name": "name",
          "type": "string"
        },
        {
          "internalType": "address",
          "name": "lecturer",
          "type": "address"
        },
        {
          "internalType": "uint256",
          "name": "date",
          "type": "uint256"
        },
        {
          "internalType": "bool",
          "name": "attended",
          "type": "bool"
        }
      ],
      "stateMutability": "view",
      "type": "function"
    },
    {
      "inputs": [
        {
          "internalType": "address",
          "name": "_student",
          "type": "address"
        },
        {
          "internalType": "uint256",
          "name": "_date",
          "type": "uint256"
        },
        {
          "internalType": "string",
          "name": "name",
          "type": "string"
        }
      ],
      "name": "createAppointment",
      "outputs": [],
      "stateMutability": "nonpayable",
      "type": "function"
    },
    {
      "inputs": [
        {
          "internalType": "uint256",
          "name": "_appointmentId",
          "type": "uint256"
        }
      ],
      "name": "getAppointment",
      "outputs": [
        {
          "internalType": "uint256",
          "name": "",
          "type": "uint256"
        },
        {
          "internalType": "address",
          "name": "",
          "type": "address"
        },
        {
          "internalType": "string",
          "name": "",
          "type": "string"
        },
        {
          "internalType": "address",
          "name": "",
          "type": "address"
        },
        {
          "internalType": "uint256",
          "name": "",
          "type": "uint256"
        },
        {
          "internalType": "bool",
          "name": "",
          "type": "bool"
        }
      ],
      "stateMutability": "view",
      "type": "function"
    },
    {
      "inputs": [],
      "name": "getAppointmentCounter",
      "outputs": [
        {
          "internalType": "uint256",
          "name": "",
          "type": "uint256"
        }
      ],
      "stateMutability": "view",
      "type": "function"
    },
    {
      "inputs": [
        {
          "internalType": "address",
          "name": "_student",
          "type": "address"
        }
      ],
      "name": "getRewardPoints",
      "outputs": [
        {
          "internalType": "uint256",
          "name": "",
          "type": "uint256"
        }
      ],
      "stateMutability": "view",
      "type": "function"
    },
    {
      "inputs": [
        {
          "internalType": "uint256",
          "name": "_appointmentId",
          "type": "uint256"
        }
      ],
      "name": "markAsAttended",
      "outputs": [],
      "stateMutability": "nonpayable",
      "type": "function"
    },
    {
      "inputs": [
        {
          "internalType": "address",
          "name": "",
          "type": "address"
        }
      ],
      "name": "rewards",
      "outputs": [
        {
          "internalType": "address",
          "name": "student",
          "type": "address"
        },
        {
          "internalType": "uint256",
          "name": "points",
          "type": "uint256"
        }
      ],
      "stateMutability": "view",
      "type": "function"
    }
  ],
  "bytecode": "0x608060405234801561001057600080fd5b50600060028190555061176b806100286000396000f3fe608060405234801561001057600080fd5b50600436106100885760003560e01c80639b08f7c91161005b5780639b08f7c914610146578063a901a3d714610162578063b41f6ed61461017e578063fd67508d1461019c57610088565b80630700037d1461008d5780630d943da2146100be57806312dc9013146100f35780636711f86f14610128575b600080fd5b6100a760048036038101906100a29190610d50565b6101cc565b6040516100b5929190610da5565b60405180910390f35b6100d860048036038101906100d39190610dfa565b610210565b6040516100ea96959493929190610ed2565b60405180910390f35b61010d60048036038101906101089190610dfa565b6103db565b60405161011f96959493929190610ed2565b60405180910390f35b6101306104ec565b60405161013d9190610f3a565b60405180910390f35b610160600480360381019061015b919061108a565b610688565b005b61017c60048036038101906101779190610dfa565b6108e4565b005b610186610c8c565b6040516101939190610f3a565b60405180910390f35b6101b660048036038101906101b19190610d50565b610c92565b6040516101c39190610f3a565b60405180910390f35b60016020528060005260406000206000915090508060000160009054906101000a900473ffffffffffffffffffffffffffffffffffffffff16908060010154905082565b60008060606000806000806000808981526020019081526020016000206040518060c0016040529081600082015481526020016001820160009054906101000a900473ffffffffffffffffffffffffffffffffffffffff1673ffffffffffffffffffffffffffffffffffffffff1673ffffffffffffffffffffffffffffffffffffffff1681526020016002820180546102a890611128565b80601f01602080910402602001604051908101604052809291908181526020018280546102d490611128565b80156103215780601f106102f657610100808354040283529160200191610321565b820191906000526020600020905b81548152906001019060200180831161030457829003601f168201915b505050505081526020016003820160009054906101000a900473ffffffffffffffffffffffffffffffffffffffff1673ffffffffffffffffffffffffffffffffffffffff1673ffffffffffffffffffffffffffffffffffffffff168152602001600482015481526020016005820160009054906101000a900460ff1615151515815250509050806000015181602001518260400151836060015184608001518560a001519650965096509650965096505091939550919395565b60006020528060005260406000206000915090508060000154908060010160009054906101000a900473ffffffffffffffffffffffffffffffffffffffff169080600201805461042a90611128565b80601f016020809104026020016040519081016040528092919081815260200182805461045690611128565b80156104a35780601f10610478576101008083540402835291602001916104a3565b820191906000526020600020905b81548152906001019060200180831161048657829003601f168201915b5050505050908060030160009054906101000a900473ffffffffffffffffffffffffffffffffffffffff16908060040154908060050160009054906101000a900460ff16905086565b60008060008060025481526020019081526020016000206040518060c0016040529081600082015481526020016001820160009054906101000a900473ffffffffffffffffffffffffffffffffffffffff1673ffffffffffffffffffffffffffffffffffffffff1673ffffffffffffffffffffffffffffffffffffffff16815260200160028201805461057e90611128565b80601f01602080910402602001604051908101604052809291908181526020018280546105aa90611128565b80156105f75780601f106105cc576101008083540402835291602001916105f7565b820191906000526020600020905b8154815290600101906020018083116105da57829003601f168201915b505050505081526020016003820160009054906101000a900473ffffffffffffffffffffffffffffffffffffffff1673ffffffffffffffffffffffffffffffffffffffff1673ffffffffffffffffffffffffffffffffffffffff168152602001600482015481526020016005820160009054906101000a900460ff1615151515815250509050806000015191505090565b600073ffffffffffffffffffffffffffffffffffffffff168373ffffffffffffffffffffffffffffffffffffffff16036106f7576040517f08c379a00000000000000000000000000000000000000000000000000000000081526004016106ee906111a5565b60405180910390fd5b428211610739576040517f08c379a000000000000000000000000000000000000000000000000000000000815260040161073090611237565b60405180910390fd5b6002600081548092919061074c90611286565b91905055506040518060c0016040528060025481526020018473ffffffffffffffffffffffffffffffffffffffff1681526020018281526020013373ffffffffffffffffffffffffffffffffffffffff1681526020018381526020016000151581525060008060025481526020019081526020016000206000820151816000015560208201518160010160006101000a81548173ffffffffffffffffffffffffffffffffffffffff021916908373ffffffffffffffffffffffffffffffffffffffff1602179055506040820151816002019081610829919061147a565b5060608201518160030160006101000a81548173ffffffffffffffffffffffffffffffffffffffff021916908373ffffffffffffffffffffffffffffffffffffffff1602179055506080820151816004015560a08201518160050160006101000a81548160ff0219169083151502179055509050507f44620b73bf9c569bf74af027c9d036a9da34d0316e3d9ff5a8b2705522a6c423600254848333866040516108d795949392919061154c565b60405180910390a1505050565b600080600083815260200190815260200160002090503373ffffffffffffffffffffffffffffffffffffffff168160030160009054906101000a900473ffffffffffffffffffffffffffffffffffffffff1673ffffffffffffffffffffffffffffffffffffffff161461098c576040517f08c379a000000000000000000000000000000000000000000000000000000000815260040161098390611618565b60405180910390fd5b8060050160009054906101000a900460ff16156109de576040517f08c379a00000000000000000000000000000000000000000000000000000000081526004016109d5906116aa565b60405180910390fd5b60018160050160006101000a81548160ff0219169083151502179055508060010160009054906101000a900473ffffffffffffffffffffffffffffffffffffffff16600160008360010160009054906101000a900473ffffffffffffffffffffffffffffffffffffffff1673ffffffffffffffffffffffffffffffffffffffff1673ffffffffffffffffffffffffffffffffffffffff16815260200190815260200160002060000160006101000a81548173ffffffffffffffffffffffffffffffffffffffff021916908373ffffffffffffffffffffffffffffffffffffffff160217905550600a600160008360010160009054906101000a900473ffffffffffffffffffffffffffffffffffffffff1673ffffffffffffffffffffffffffffffffffffffff1673ffffffffffffffffffffffffffffffffffffffff1681526020019081526020016000206001016000828254610b3b91906116ca565b925050819055507f66153f619a2f60444c416c6aeb29fe323dc1fc1373e221fb65b8dba9b20dabbe828260010160009054906101000a900473ffffffffffffffffffffffffffffffffffffffff168360030160009054906101000a900473ffffffffffffffffffffffffffffffffffffffff16604051610bbd939291906116fe565b60405180910390a17f3ad0c8d1bbd63d54c5f14180eae95cab7c2420b2dbb90603a6e5d206668f52ec8160010160009054906101000a900473ffffffffffffffffffffffffffffffffffffffff16600160008460010160009054906101000a900473ffffffffffffffffffffffffffffffffffffffff1673ffffffffffffffffffffffffffffffffffffffff1673ffffffffffffffffffffffffffffffffffffffff16815260200190815260200160002060010154604051610c80929190610da5565b60405180910390a15050565b60025481565b6000600160008373ffffffffffffffffffffffffffffffffffffffff1673ffffffffffffffffffffffffffffffffffffffff168152602001908152602001600020600101549050919050565b6000604051905090565b600080fd5b600080fd5b600073ffffffffffffffffffffffffffffffffffffffff82169050919050565b6000610d1d82610cf2565b9050919050565b610d2d81610d12565b8114610d3857600080fd5b50565b600081359050610d4a81610d24565b92915050565b600060208284031215610d6657610d65610ce8565b5b6000610d7484828501610d3b565b91505092915050565b610d8681610d12565b82525050565b6000819050919050565b610d9f81610d8c565b82525050565b6000604082019050610dba6000830185610d7d565b610dc76020830184610d96565b9392505050565b610dd781610d8c565b8114610de257600080fd5b50565b600081359050610df481610dce565b92915050565b600060208284031215610e1057610e0f610ce8565b5b6000610e1e84828501610de5565b91505092915050565b600081519050919050565b600082825260208201905092915050565b60005b83811015610e61578082015181840152602081019050610e46565b60008484015250505050565b6000601f19601f8301169050919050565b6000610e8982610e27565b610e938185610e32565b9350610ea3818560208601610e43565b610eac81610e6d565b840191505092915050565b60008115159050919050565b610ecc81610eb7565b82525050565b600060c082019050610ee76000830189610d96565b610ef46020830188610d7d565b8181036040830152610f068187610e7e565b9050610f156060830186610d7d565b610f226080830185610d96565b610f2f60a0830184610ec3565b979650505050505050565b6000602082019050610f4f6000830184610d96565b92915050565b600080fd5b600080fd5b7f4e487b7100000000000000000000000000000000000000000000000000000000600052604160045260246000fd5b610f9782610e6d565b810181811067ffffffffffffffff82111715610fb657610fb5610f5f565b5b80604052505050565b6000610fc9610cde565b9050610fd58282610f8e565b919050565b600067ffffffffffffffff821115610ff557610ff4610f5f565b5b610ffe82610e6d565b9050602081019050919050565b82818337600083830152505050565b600061102d61102884610fda565b610fbf565b90508281526020810184848401111561104957611048610f5a565b5b61105484828561100b565b509392505050565b600082601f83011261107157611070610f55565b5b813561108184826020860161101a565b91505092915050565b6000806000606084860312156110a3576110a2610ce8565b5b60006110b186828701610d3b565b93505060206110c286828701610de5565b925050604084013567ffffffffffffffff8111156110e3576110e2610ced565b5b6110ef8682870161105c565b9150509250925092565b7f4e487b7100000000000000000000000000000000000000000000000000000000600052602260045260246000fd5b6000600282049050600182168061114057607f821691505b602082108103611153576111526110f9565b5b50919050565b7f53747564656e7420616464726573732063616e6e6f74206265207a65726f0000600082015250565b600061118f601e83610e32565b915061119a82611159565b602082019050919050565b600060208201905081810360008301526111be81611182565b9050919050565b7f4170706f696e746d656e742064617465206d75737420626520696e207468652060008201527f6675747572650000000000000000000000000000000000000000000000000000602082015250565b6000611221602683610e32565b915061122c826111c5565b604082019050919050565b6000602082019050818103600083015261125081611214565b9050919050565b7f4e487b7100000000000000000000000000000000000000000000000000000000600052601160045260246000fd5b600061129182610d8c565b91507fffffffffffffffffffffffffffffffffffffffffffffffffffffffffffffffff82036112c3576112c2611257565b5b600182019050919050565b60008190508160005260206000209050919050565b60006020601f8301049050919050565b600082821b905092915050565b6000600883026113307fffffffffffffffffffffffffffffffffffffffffffffffffffffffffffffffff826112f3565b61133a86836112f3565b95508019841693508086168417925050509392505050565b6000819050919050565b600061137761137261136d84610d8c565b611352565b610d8c565b9050919050565b6000819050919050565b6113918361135c565b6113a561139d8261137e565b848454611300565b825550505050565b600090565b6113ba6113ad565b6113c5818484611388565b505050565b5b818110156113e9576113de6000826113b2565b6001810190506113cb565b5050565b601f82111561142e576113ff816112ce565b611408846112e3565b81016020851015611417578190505b61142b611423856112e3565b8301826113ca565b50505b505050565b600082821c905092915050565b600061145160001984600802611433565b1980831691505092915050565b600061146a8383611440565b9150826002028217905092915050565b61148382610e27565b67ffffffffffffffff81111561149c5761149b610f5f565b5b6114a68254611128565b6114b18282856113ed565b600060209050601f8311600181146114e457600084156114d2578287015190505b6114dc858261145e565b865550611544565b601f1984166114f2866112ce565b60005b8281101561151a578489015182556001820191506020850194506020810190506114f5565b868310156115375784890151611533601f891682611440565b8355505b6001600288020188555050505b505050505050565b600060a0820190506115616000830188610d96565b61156e6020830187610d7d565b81810360408301526115808186610e7e565b905061158f6060830185610d7d565b61159c6080830184610d96565b9695505050505050565b7f4f6e6c7920746865206c656374757265722063616e206d61726b20746865206160008201527f70706f696e746d656e7420617320617474656e64656400000000000000000000602082015250565b6000611602603683610e32565b915061160d826115a6565b604082019050919050565b60006020820190508181036000830152611631816115f5565b9050919050565b7f4170706f696e746d656e7420616c7265616479206d61726b656420617320617460008201527f74656e6465640000000000000000000000000000000000000000000000000000602082015250565b6000611694602683610e32565b915061169f82611638565b604082019050919050565b600060208201905081810360008301526116c381611687565b9050919050565b60006116d582610d8c565b91506116e083610d8c565b92508282019050808211156116f8576116f7611257565b5b92915050565b60006060820190506117136000830186610d96565b6117206020830185610d7d565b61172d6040830184610d7d565b94935050505056fea26469706673582212208537af674d218efd032f8f39a2e14f7df04c305f851c481f2d8c5d20ea140bfd64736f6c63430008180033",
  "linkReferences": {},
  "deployedLinkReferences": {}
}